{
  "contractName": "Consumer",
  "abi": [
    {
      "inputs": [
        {
          "internalType": "address",
          "name": "_oracle",
          "type": "address"
        }
      ],
      "stateMutability": "nonpayable",
      "type": "constructor"
    },
    {
      "inputs": [],
      "name": "oracle",
      "outputs": [
        {
          "internalType": "contract IOracle",
          "name": "",
          "type": "address"
        }
      ],
      "stateMutability": "view",
      "type": "function",
      "constant": true
    },
    {
      "inputs": [],
      "name": "fetchData",
      "outputs": [
        {
          "internalType": "uint256",
          "name": "",
          "type": "uint256"
        }
      ],
      "stateMutability": "view",
      "type": "function",
      "constant": true
    }
  ],
  "bytecode": "0x608060405234801561001057600080fd5b5060405161069f38038061069f8339818101604052810190610032919061008d565b806000806101000a81548173ffffffffffffffffffffffffffffffffffffffff021916908373ffffffffffffffffffffffffffffffffffffffff160217905550506100ff565b600081519050610087816100e8565b92915050565b60006020828403121561009f57600080fd5b60006100ad84828501610078565b91505092915050565b60006100c1826100c8565b9050919050565b600073ffffffffffffffffffffffffffffffffffffffff82169050919050565b6100f1816100b6565b81146100fc57600080fd5b50565b6105918061010e6000396000f3fe608060405234801561001057600080fd5b50600436106100365760003560e01c806367845e161461003b5780637dc0d1d014610059575b600080fd5b610043610077565b60405161005091906103b4565b60405180910390f35b6100616101f6565b60405161006e9190610359565b60405180910390f35b60008060405160200161008990610329565b60405160208183030381529060405280519060200120905060008060008060009054906101000a900473ffffffffffffffffffffffffffffffffffffffff1673ffffffffffffffffffffffffffffffffffffffff166354f6127f856040518263ffffffff1660e01b8152600401610100919061033e565b60606040518083038186803b15801561011857600080fd5b505afa15801561012c573d6000803e3d6000fd5b505050506040513d601f19601f820116820180604052508101906101509190610244565b925092509250600115158315151461019d576040517f08c379a000000000000000000000000000000000000000000000000000000000815260040161019490610374565b60405180910390fd5b6078426101aa91906103eb565b8210156101ec576040517f08c379a00000000000000000000000000000000000000000000000000000000081526004016101e390610394565b60405180910390fd5b8094505050505090565b60008054906101000a900473ffffffffffffffffffffffffffffffffffffffff1681565b6000815190506102298161052d565b92915050565b60008151905061023e81610544565b92915050565b60008060006060848603121561025957600080fd5b60006102678682870161021a565b93505060206102788682870161022f565b92505060406102898682870161022f565b9150509250925092565b61029c8161042b565b82525050565b6102ab8161045f565b82525050565b60006102be6013836103cf565b91506102c9826104b2565b602082019050919050565b60006102e1600c836103cf565b91506102ec826104db565b602082019050919050565b60006103046007836103e0565b915061030f82610504565b600782019050919050565b61032381610455565b82525050565b6000610334826102f7565b9150819050919050565b60006020820190506103536000830184610293565b92915050565b600060208201905061036e60008301846102a2565b92915050565b6000602082019050818103600083015261038d816102b1565b9050919050565b600060208201905081810360008301526103ad816102d4565b9050919050565b60006020820190506103c9600083018461031a565b92915050565b600082825260208201905092915050565b600081905092915050565b60006103f682610455565b915061040183610455565b92508282101561041457610413610483565b5b828203905092915050565b60008115159050919050565b6000819050919050565b600073ffffffffffffffffffffffffffffffffffffffff82169050919050565b6000819050919050565b600061046a82610471565b9050919050565b600061047c82610435565b9050919050565b7f4e487b7100000000000000000000000000000000000000000000000000000000600052601160045260246000fd5b7f6461746120646f6573206e6f7420657869737400000000000000000000000000600082015250565b7f6461746120657870697265640000000000000000000000000000000000000000600082015250565b7f4254432f55534400000000000000000000000000000000000000000000000000600082015250565b6105368161041f565b811461054157600080fd5b50565b61054d81610455565b811461055857600080fd5b5056fea264697066735822122088d48f2b9b8e52d5da1b9ab7d7b18f29fd143c2a23fa8a874c79f73866b5f71264736f6c63430008040033",
  "immutableReferences": {},
  "source": "// SPDX-License-Identifier: MIT\npragma solidity ^0.8.0;\n\nimport \"./IOracle.sol\";\n\ncontract Consumer {\n    IOracle public oracle;\n\n    constructor(address _oracle) {\n        oracle = IOracle(_oracle);\n    }\n\n    function fetchData() external view returns (uint256) {\n        bytes32 key = keccak256(abi.encodePacked(\"BTC/USD\"));\n\n        (bool result, uint256 timestamp, uint256 data) = oracle.getData(key);\n\n        require(result == true, \"data does not exist\");\n        require(timestamp >= block.timestamp - 2 minutes, \"data expired\");\n\n        return data;\n    }\n}\n",
  "sourcePath": "/Users/ryan/Desktop/Projects/defi/oracle/contracts/Consumer.sol",
  "compiler": {
    "name": "solc",
    "version": "0.8.4+commit.c7e474f2.Emscripten.clang"
  },
  "schemaVersion": "3.3.4",
  "updatedAt": "2021-04-28T20:08:03.564Z",
  "networkType": "ethereum",
  "devdoc": {
    "kind": "dev",
    "methods": {},
    "version": 1
  },
  "userdoc": {
    "kind": "user",
    "methods": {},
    "version": 1
  }
}