{
  "contractName": "Oracle",
  "abi": [
    {
      "inputs": [
        {
          "internalType": "address",
          "name": "_admin",
          "type": "address"
        }
      ],
      "stateMutability": "nonpayable",
      "type": "constructor"
    },
    {
      "inputs": [],
      "name": "admin",
      "outputs": [
        {
          "internalType": "address",
          "name": "",
          "type": "address"
        }
      ],
      "stateMutability": "view",
      "type": "function",
      "constant": true
    },
    {
      "inputs": [
        {
          "internalType": "bytes32",
          "name": "",
          "type": "bytes32"
        }
      ],
      "name": "data",
      "outputs": [
        {
          "internalType": "uint256",
          "name": "date",
          "type": "uint256"
        },
        {
          "internalType": "uint256",
          "name": "payload",
          "type": "uint256"
        }
      ],
      "stateMutability": "view",
      "type": "function",
      "constant": true
    },
    {
      "inputs": [
        {
          "internalType": "address",
          "name": "",
          "type": "address"
        }
      ],
      "name": "reporters",
      "outputs": [
        {
          "internalType": "bool",
          "name": "",
          "type": "bool"
        }
      ],
      "stateMutability": "view",
      "type": "function",
      "constant": true
    },
    {
      "inputs": [
        {
          "internalType": "address",
          "name": "reporter",
          "type": "address"
        },
        {
          "internalType": "bool",
          "name": "isReporter",
          "type": "bool"
        }
      ],
      "name": "updateReporter",
      "outputs": [],
      "stateMutability": "nonpayable",
      "type": "function"
    },
    {
      "inputs": [
        {
          "internalType": "bytes32",
          "name": "key",
          "type": "bytes32"
        },
        {
          "internalType": "uint256",
          "name": "payload",
          "type": "uint256"
        }
      ],
      "name": "updateData",
      "outputs": [],
      "stateMutability": "nonpayable",
      "type": "function"
    },
    {
      "inputs": [
        {
          "internalType": "bytes32",
          "name": "key",
          "type": "bytes32"
        }
      ],
      "name": "getData",
      "outputs": [
        {
          "internalType": "bool",
          "name": "result",
          "type": "bool"
        },
        {
          "internalType": "uint256",
          "name": "date",
          "type": "uint256"
        },
        {
          "internalType": "uint256",
          "name": "payload",
          "type": "uint256"
        }
      ],
      "stateMutability": "view",
      "type": "function",
      "constant": true
    }
  ],
  "bytecode": "0x608060405234801561001057600080fd5b506040516108a63803806108a68339818101604052810190610032919061008e565b80600260006101000a81548173ffffffffffffffffffffffffffffffffffffffff021916908373ffffffffffffffffffffffffffffffffffffffff16021790555050610100565b600081519050610088816100e9565b92915050565b6000602082840312156100a057600080fd5b60006100ae84828501610079565b91505092915050565b60006100c2826100c9565b9050919050565b600073ffffffffffffffffffffffffffffffffffffffff82169050919050565b6100f2816100b7565b81146100fd57600080fd5b50565b6107978061010f6000396000f3fe608060405234801561001057600080fd5b50600436106100625760003560e01c80630147fb0c146100675780631ec6e24f146100985780632cc1cd9e146100b457806354f6127f146100e4578063a8200ab714610116578063f851a44014610132575b600080fd5b610081600480360381019061007c91906104a2565b610150565b60405161008f929190610627565b60405180910390f35b6100b260048036038101906100ad9190610466565b610174565b005b6100ce60048036038101906100c9919061043d565b61025e565b6040516100db9190610595565b60405180910390f35b6100fe60048036038101906100f991906104a2565b61027e565b60405161010d939291906105b0565b60405180910390f35b610130600480360381019061012b91906104cb565b6102ee565b005b61013a6103c3565b604051610147919061057a565b60405180910390f35b60016020528060005260406000206000915090508060000154908060010154905082565b600260009054906101000a900473ffffffffffffffffffffffffffffffffffffffff1673ffffffffffffffffffffffffffffffffffffffff163373ffffffffffffffffffffffffffffffffffffffff1614610204576040517f08c379a00000000000000000000000000000000000000000000000000000000081526004016101fb906105e7565b60405180910390fd5b806000808473ffffffffffffffffffffffffffffffffffffffff1673ffffffffffffffffffffffffffffffffffffffff16815260200190815260200160002060006101000a81548160ff0219169083151502179055505050565b60006020528060005260406000206000915054906101000a900460ff1681565b600080600080600160008681526020019081526020016000206000015414156102b15760008060009250925092506102e7565b60018060008681526020019081526020016000206000015460016000878152602001908152602001600020600101549250925092505b9193909250565b600115156000803373ffffffffffffffffffffffffffffffffffffffff1673ffffffffffffffffffffffffffffffffffffffff16815260200190815260200160002060009054906101000a900460ff16151514610380576040517f08c379a000000000000000000000000000000000000000000000000000000000815260040161037790610607565b60405180910390fd5b6040518060400160405280428152602001828152506001600084815260200190815260200160002060008201518160000155602082015181600101559050505050565b600260009054906101000a900473ffffffffffffffffffffffffffffffffffffffff1681565b6000813590506103f881610705565b92915050565b60008135905061040d8161071c565b92915050565b60008135905061042281610733565b92915050565b6000813590506104378161074a565b92915050565b60006020828403121561044f57600080fd5b600061045d848285016103e9565b91505092915050565b6000806040838503121561047957600080fd5b6000610487858286016103e9565b9250506020610498858286016103fe565b9150509250929050565b6000602082840312156104b457600080fd5b60006104c284828501610413565b91505092915050565b600080604083850312156104de57600080fd5b60006104ec85828601610413565b92505060206104fd85828601610428565b9150509250929050565b61051081610661565b82525050565b61051f81610673565b82525050565b6000610532600a83610650565b915061053d826106b3565b602082019050919050565b6000610555600e83610650565b9150610560826106dc565b602082019050919050565b610574816106a9565b82525050565b600060208201905061058f6000830184610507565b92915050565b60006020820190506105aa6000830184610516565b92915050565b60006060820190506105c56000830186610516565b6105d2602083018561056b565b6105df604083018461056b565b949350505050565b6000602082019050818103600083015261060081610525565b9050919050565b6000602082019050818103600083015261062081610548565b9050919050565b600060408201905061063c600083018561056b565b610649602083018461056b565b9392505050565b600082825260208201905092915050565b600061066c82610689565b9050919050565b60008115159050919050565b6000819050919050565b600073ffffffffffffffffffffffffffffffffffffffff82169050919050565b6000819050919050565b7f6f6e6c792061646d696e00000000000000000000000000000000000000000000600082015250565b7f6f6e6c79207265706f7274657273000000000000000000000000000000000000600082015250565b61070e81610661565b811461071957600080fd5b50565b61072581610673565b811461073057600080fd5b50565b61073c8161067f565b811461074757600080fd5b50565b610753816106a9565b811461075e57600080fd5b5056fea2646970667358221220cc235375ded692b9d730e1e0056c694343323a2bb27437c2efa3a169472ff0c764736f6c63430008040033",
  "immutableReferences": {},
  "source": "// SPDX-License-Identifier: MIT\npragma solidity ^0.8.0;\n\ncontract Oracle {\n    struct Data {\n        uint256 date;\n        uint256 payload;\n    }\n\n    mapping(address => bool) public reporters;\n    mapping(bytes32 => Data) public data;\n\n    address public admin;\n\n    constructor(address _admin) {\n        admin = _admin;\n    }\n\n    function updateReporter(address reporter, bool isReporter) external {\n        require(msg.sender == admin, \"only admin\");\n\n        reporters[reporter] = isReporter;\n    }\n\n    function updateData(bytes32 key, uint256 payload) external {\n        require(reporters[msg.sender] == true, \"only reporters\");\n\n        data[key] = Data(block.timestamp, payload);\n    }\n\n    function getData(bytes32 key)\n        external\n        view\n        returns (\n            bool result,\n            uint256 date,\n            uint256 payload\n        )\n    {\n        if (data[key].date == 0) {\n            return (false, 0, 0);\n        }\n\n        return (true, data[key].date, data[key].payload);\n    }\n}\n",
  "sourcePath": "/Users/ryan/Desktop/Projects/defi/oracle/contracts/Oracle.sol",
  "compiler": {
    "name": "solc",
    "version": "0.8.4+commit.c7e474f2.Emscripten.clang"
  },
  "schemaVersion": "3.3.4",
  "updatedAt": "2021-04-28T20:08:03.561Z",
  "networkType": "ethereum",
  "devdoc": {
    "kind": "dev",
    "methods": {},
    "version": 1
  },
  "userdoc": {
    "kind": "user",
    "methods": {},
    "version": 1
  }
}